{
  "transactions": [
    {
      "hash": "0xb20e93f5b270ada9ebe8fbb2d4291aae6fb335376d251e9cd8f8186f91c386e2",
      "transactionType": "CALL",
      "contractName": "PaymasterAcceptAllWithUNIAccess",
      "contractAddress": "0x17f5110Cd1412047D2a84f8D40c0716Bc5CDE0cD",
      "function": "addStake(uint32)",
      "arguments": [
        "1000"
      ],
      "rpc": "https://sepolia.infura.io/v3/ae2733bc9a044569a7a8c315f7b58218",
      "transaction": {
        "type": "0x02",
        "from": "0xdd1d28e5bedbd000a0539a3bf0ed558f4b721a84",
        "to": "0x17f5110cd1412047d2a84f8d40c0716bc5cde0cd",
        "gas": "0x158ff",
        "value": "0x38d7ea4c68000",
        "data": "0x0396cb6000000000000000000000000000000000000000000000000000000000000003e8",
        "nonce": "0x14",
        "accessList": []
      },
      "additionalContracts": []
    }
  ],
  "receipts": [],
  "libraries": [],
  "pending": [
    "0xb20e93f5b270ada9ebe8fbb2d4291aae6fb335376d251e9cd8f8186f91c386e2"
  ],
  "path": "/Users/aseem/projects/paymaster-uni/broadcast/PaymasterAcceptAllWithUNIAccess.s.sol/11155111/run-latest.json",
  "returns": {},
  "timestamp": 1700511033,
  "chain": 11155111,
  "multi": false,
  "commit": "61fa855"
}