{
  "transactions": [
    {
      "hash": "0xb20e93f5b270ada9ebe8fbb2d4291aae6fb335376d251e9cd8f8186f91c386e2",
      "transactionType": "CALL",
      "contractName": "PaymasterAcceptAllWithUNIAccess",
      "contractAddress": "0x17f5110Cd1412047D2a84f8D40c0716Bc5CDE0cD",
      "function": "addStake(uint32)",
      "arguments": [
        "1000"
      ],
      "rpc": "https://sepolia.infura.io/v3/ae2733bc9a044569a7a8c315f7b58218",
      "transaction": {
        "type": "0x02",
        "from": "0xdd1d28e5bedbd000a0539a3bf0ed558f4b721a84",
        "to": "0x17f5110cd1412047d2a84f8d40c0716bc5cde0cd",
        "gas": "0x158ff",
        "value": "0x38d7ea4c68000",
        "data": "0x0396cb6000000000000000000000000000000000000000000000000000000000000003e8",
        "nonce": "0x14",
        "accessList": []
      },
      "additionalContracts": []
    }
  ],
  "receipts": [
    {
      "transactionHash": "0xb20e93f5b270ada9ebe8fbb2d4291aae6fb335376d251e9cd8f8186f91c386e2",
      "transactionIndex": "0x8",
      "blockHash": "0xafd73ca6b71562deeef4d6db4db778b060572c3d52152113ccbd306c9157b587",
      "blockNumber": "0x483a1b",
      "from": "0xDd1D28e5BEdBd000A0539a3BF0ED558F4B721a84",
      "to": "0x17f5110Cd1412047D2a84f8D40c0716Bc5CDE0cD",
      "cumulativeGasUsed": "0xb656f",
      "gasUsed": "0xf9c6",
      "contractAddress": null,
      "logs": [
        {
          "address": "0x5FF137D4b0FDCD49DcA30c7CF57E578a026d2789",
          "topics": [
            "0xa5ae833d0bb1dcd632d98a8b70973e8516812898e19bf27b70071ebc8dc52c01",
            "0x00000000000000000000000017f5110cd1412047d2a84f8d40c0716bc5cde0cd"
          ],
          "data": "0x00000000000000000000000000000000000000000000000000038d7ea4c6800000000000000000000000000000000000000000000000000000000000000003e8",
          "blockHash": "0xafd73ca6b71562deeef4d6db4db778b060572c3d52152113ccbd306c9157b587",
          "blockNumber": "0x483a1b",
          "transactionHash": "0xb20e93f5b270ada9ebe8fbb2d4291aae6fb335376d251e9cd8f8186f91c386e2",
          "transactionIndex": "0x8",
          "logIndex": "0x8",
          "removed": false
        }
      ],
      "status": "0x1",
      "logsBloom": "0x00000000000000000000000000000000000000000000000000000000000000000800000000000000000200000008000000100000000000000000000000000000000000000000000000000000000000000000000000000000000000000000000000000000080000000000000000000000000000000000000000000000000000000000000000000000000000000000000000000000000000000000000000000000000000000000000000000200000000000000000000000000000000000000000000000000000000000000000000000000000040000000000000000000000000000100000000000000000000000000000000000200000000000000000000000000",
      "type": "0x2",
      "effectiveGasPrice": "0xb32597fd"
    }
  ],
  "libraries": [],
  "pending": [],
  "path": "/Users/aseem/projects/paymaster-uni/broadcast/PaymasterAcceptAllWithUNIAccess.s.sol/11155111/run-latest.json",
  "returns": {},
  "timestamp": 1700511039,
  "chain": 11155111,
  "multi": false,
  "commit": "61fa855"
}