{
  "transactions": [
    {
      "hash": "0xd87d88905646bcababe40b40a99487f0b78cc3aa0780b40475a0d0b80a006e48",
      "transactionType": "CALL",
      "contractName": "PaymasterUniGovernance",
      "contractAddress": "0x41647D660322f6e085962177a5218345F69a6084",
      "function": "updateMaxCostAllowed(uint256)",
      "arguments": [
        "5000000"
      ],
      "rpc": "https://sepolia.infura.io/v3/ae2733bc9a044569a7a8c315f7b58218",
      "transaction": {
        "type": "0x02",
        "from": "0xdd1d28e5bedbd000a0539a3bf0ed558f4b721a84",
        "to": "0x41647d660322f6e085962177a5218345f69a6084",
        "gas": "0x9aa4",
        "value": "0x0",
        "data": "0x03b7756b00000000000000000000000000000000000000000000000000000000004c4b40",
        "nonce": "0x1c",
        "accessList": []
      },
      "additionalContracts": []
    }
  ],
  "receipts": [
    {
      "transactionHash": "0xd87d88905646bcababe40b40a99487f0b78cc3aa0780b40475a0d0b80a006e48",
      "transactionIndex": "0x9",
      "blockHash": "0x1ed3aec2e0f8526cabb81be547e474e311d32a2fb9b9e841e3b147e36f259644",
      "blockNumber": "0x48e931",
      "from": "0xDd1D28e5BEdBd000A0539a3BF0ED558F4B721a84",
      "to": "0x41647D660322f6e085962177a5218345F69a6084",
      "cumulativeGasUsed": "0x1341a6",
      "gasUsed": "0x6ff6",
      "contractAddress": null,
      "logs": [],
      "status": "0x1",
      "logsBloom": "0x00000000000000000000000000000000000000000000000000000000000000000000000000000000000000000000000000000000000000000000000000000000000000000000000000000000000000000000000000000000000000000000000000000000000000000000000000000000000000000000000000000000000000000000000000000000000000000000000000000000000000000000000000000000000000000000000000000000000000000000000000000000000000000000000000000000000000000000000000000000000000000000000000000000000000000000000000000000000000000000000000000000000000000000000000000000",
      "type": "0x2",
      "effectiveGasPrice": "0xb9043be7"
    }
  ],
  "libraries": [],
  "pending": [],
  "path": "/Users/aseem/projects/paymaster-uni/broadcast/PaymasterUniGovernance.s.sol/11155111/run-latest.json",
  "returns": {},
  "timestamp": 1701116321,
  "chain": 11155111,
  "multi": false,
  "commit": "4e7454b"
}