{
  "transactions": [
    {
      "hash": "0xaa227cf9456a8c151096205d7a1e7a24f985055b428b589b0bcaeef2e89ad885",
      "transactionType": "CALL",
      "contractName": "PaymasterUniGovernance",
      "contractAddress": "0x32CdADC236469Ece8E907B744baFa0e4f0340570",
      "function": "updateMaxCostAllowed(uint256)",
      "arguments": [
        "100000000000000000"
      ],
      "rpc": "https://sepolia.infura.io/v3/ae2733bc9a044569a7a8c315f7b58218",
      "transaction": {
        "type": "0x02",
        "from": "0xdd1d28e5bedbd000a0539a3bf0ed558f4b721a84",
        "to": "0x32cdadc236469ece8e907b744bafa0e4f0340570",
        "gas": "0xa3f2",
        "value": "0x0",
        "data": "0x03b7756b000000000000000000000000000000000000000000000000016345785d8a0000",
        "nonce": "0x26",
        "accessList": []
      },
      "additionalContracts": []
    }
  ],
  "receipts": [],
  "libraries": [],
  "pending": [
    "0xaa227cf9456a8c151096205d7a1e7a24f985055b428b589b0bcaeef2e89ad885"
  ],
  "path": "/Users/aseem/projects/paymaster-uni/broadcast/PaymasterUniGovernance.s.sol/11155111/run-latest.json",
  "returns": {},
  "timestamp": 1701121406,
  "chain": 11155111,
  "multi": false,
  "commit": "4e7454b"
}