{
  "transactions": [
    {
      "hash": "0xbe055d8f4bca22c00a31573cf9301756553fa1c0041af2fdcb09c8d188bbd3bb",
      "transactionType": "CALL",
      "contractName": "PaymasterUniGovernance",
      "contractAddress": "0x41647D660322f6e085962177a5218345F69a6084",
      "function": "updateMaxCostAllowed(uint256)",
      "arguments": [
        "1000000"
      ],
      "rpc": "https://sepolia.infura.io/v3/ae2733bc9a044569a7a8c315f7b58218",
      "transaction": {
        "type": "0x02",
        "from": "0xdd1d28e5bedbd000a0539a3bf0ed558f4b721a84",
        "to": "0x41647d660322f6e085962177a5218345f69a6084",
        "gas": "0x9aa4",
        "value": "0x0",
        "data": "0x03b7756b00000000000000000000000000000000000000000000000000000000000f4240",
        "nonce": "0x1b",
        "accessList": []
      },
      "additionalContracts": []
    }
  ],
  "receipts": [
    {
      "transactionHash": "0xbe055d8f4bca22c00a31573cf9301756553fa1c0041af2fdcb09c8d188bbd3bb",
      "transactionIndex": "0x1",
      "blockHash": "0x2f18b84efc6194755d19cab92f49097b5a6943ce7af7da8aa2ad3021e823b55e",
      "blockNumber": "0x48e929",
      "from": "0xDd1D28e5BEdBd000A0539a3BF0ED558F4B721a84",
      "to": "0x41647D660322f6e085962177a5218345F69a6084",
      "cumulativeGasUsed": "0x13c94",
      "gasUsed": "0x6ff6",
      "contractAddress": null,
      "logs": [],
      "status": "0x1",
      "logsBloom": "0x00000000000000000000000000000000000000000000000000000000000000000000000000000000000000000000000000000000000000000000000000000000000000000000000000000000000000000000000000000000000000000000000000000000000000000000000000000000000000000000000000000000000000000000000000000000000000000000000000000000000000000000000000000000000000000000000000000000000000000000000000000000000000000000000000000000000000000000000000000000000000000000000000000000000000000000000000000000000000000000000000000000000000000000000000000000",
      "type": "0x2",
      "effectiveGasPrice": "0xb9fe8724"
    }
  ],
  "libraries": [],
  "pending": [],
  "path": "/Users/aseem/projects/paymaster-uni/broadcast/PaymasterUniGovernance.s.sol/11155111/run-latest.json",
  "returns": {},
  "timestamp": 1701116166,
  "chain": 11155111,
  "multi": false,
  "commit": "4e7454b"
}