{
  "transactions": [
    {
      "hash": "0xe472962631c300214908137b48460ecb1bc4720117de2ee2c876528158978dcf",
      "transactionType": "CALL",
      "contractName": "PaymasterUniGovernance",
      "contractAddress": "0x32CdADC236469Ece8E907B744baFa0e4f0340570",
      "function": "updateMaxCostAllowed(uint256)",
      "arguments": [
        "5000000000000000"
      ],
      "rpc": "https://sepolia.infura.io/v3/ae2733bc9a044569a7a8c315f7b58218",
      "transaction": {
        "type": "0x02",
        "from": "0xdd1d28e5bedbd000a0539a3bf0ed558f4b721a84",
        "to": "0x32cdadc236469ece8e907b744bafa0e4f0340570",
        "gas": "0xa3f2",
        "value": "0x0",
        "data": "0x03b7756b0000000000000000000000000000000000000000000000000011c37937e08000",
        "nonce": "0x23",
        "accessList": []
      },
      "additionalContracts": []
    }
  ],
  "receipts": [],
  "libraries": [],
  "pending": [
    "0xe472962631c300214908137b48460ecb1bc4720117de2ee2c876528158978dcf"
  ],
  "path": "/Users/aseem/projects/paymaster-uni/broadcast/PaymasterUniGovernance.s.sol/11155111/run-latest.json",
  "returns": {},
  "timestamp": 1701119076,
  "chain": 11155111,
  "multi": false,
  "commit": "4e7454b"
}