{
  "transactions": [
    {
      "hash": "0xaa227cf9456a8c151096205d7a1e7a24f985055b428b589b0bcaeef2e89ad885",
      "transactionType": "CALL",
      "contractName": "PaymasterUniGovernance",
      "contractAddress": "0x32CdADC236469Ece8E907B744baFa0e4f0340570",
      "function": "updateMaxCostAllowed(uint256)",
      "arguments": [
        "100000000000000000"
      ],
      "rpc": "https://sepolia.infura.io/v3/ae2733bc9a044569a7a8c315f7b58218",
      "transaction": {
        "type": "0x02",
        "from": "0xdd1d28e5bedbd000a0539a3bf0ed558f4b721a84",
        "to": "0x32cdadc236469ece8e907b744bafa0e4f0340570",
        "gas": "0xa3f2",
        "value": "0x0",
        "data": "0x03b7756b000000000000000000000000000000000000000000000000016345785d8a0000",
        "nonce": "0x26",
        "accessList": []
      },
      "additionalContracts": []
    }
  ],
  "receipts": [
    {
      "transactionHash": "0xaa227cf9456a8c151096205d7a1e7a24f985055b428b589b0bcaeef2e89ad885",
      "transactionIndex": "0x12",
      "blockHash": "0x32ebaba01712ce5dd3768ab02817671eb42dab9d9fd486b764c9caf9f36a8595",
      "blockNumber": "0x48eabf",
      "from": "0xDd1D28e5BEdBd000A0539a3BF0ED558F4B721a84",
      "to": "0x32CdADC236469Ece8E907B744baFa0e4f0340570",
      "cumulativeGasUsed": "0x93c3c",
      "gasUsed": "0x701a",
      "contractAddress": null,
      "logs": [],
      "status": "0x1",
      "logsBloom": "0x00000000000000000000000000000000000000000000000000000000000000000000000000000000000000000000000000000000000000000000000000000000000000000000000000000000000000000000000000000000000000000000000000000000000000000000000000000000000000000000000000000000000000000000000000000000000000000000000000000000000000000000000000000000000000000000000000000000000000000000000000000000000000000000000000000000000000000000000000000000000000000000000000000000000000000000000000000000000000000000000000000000000000000000000000000000",
      "type": "0x2",
      "effectiveGasPrice": "0xb9578ca9"
    }
  ],
  "libraries": [],
  "pending": [],
  "path": "/Users/aseem/projects/paymaster-uni/broadcast/PaymasterUniGovernance.s.sol/11155111/run-latest.json",
  "returns": {},
  "timestamp": 1701121420,
  "chain": 11155111,
  "multi": false,
  "commit": "4e7454b"
}