{
  "transactions": [
    {
      "hash": "0xe472962631c300214908137b48460ecb1bc4720117de2ee2c876528158978dcf",
      "transactionType": "CALL",
      "contractName": "PaymasterUniGovernance",
      "contractAddress": "0x32CdADC236469Ece8E907B744baFa0e4f0340570",
      "function": "updateMaxCostAllowed(uint256)",
      "arguments": [
        "5000000000000000"
      ],
      "rpc": "https://sepolia.infura.io/v3/ae2733bc9a044569a7a8c315f7b58218",
      "transaction": {
        "type": "0x02",
        "from": "0xdd1d28e5bedbd000a0539a3bf0ed558f4b721a84",
        "to": "0x32cdadc236469ece8e907b744bafa0e4f0340570",
        "gas": "0xa3f2",
        "value": "0x0",
        "data": "0x03b7756b0000000000000000000000000000000000000000000000000011c37937e08000",
        "nonce": "0x23",
        "accessList": []
      },
      "additionalContracts": []
    }
  ],
  "receipts": [
    {
      "transactionHash": "0xe472962631c300214908137b48460ecb1bc4720117de2ee2c876528158978dcf",
      "transactionIndex": "0x2",
      "blockHash": "0x1f0e59d58ec63fcc8242bc87c8727cc81792f7f583300b09100982872c1316db",
      "blockNumber": "0x48ea10",
      "from": "0xDd1D28e5BEdBd000A0539a3BF0ED558F4B721a84",
      "to": "0x32CdADC236469Ece8E907B744baFa0e4f0340570",
      "cumulativeGasUsed": "0x1ee46",
      "gasUsed": "0x701a",
      "contractAddress": null,
      "logs": [],
      "status": "0x1",
      "logsBloom": "0x00000000000000000000000000000000000000000000000000000000000000000000000000000000000000000000000000000000000000000000000000000000000000000000000000000000000000000000000000000000000000000000000000000000000000000000000000000000000000000000000000000000000000000000000000000000000000000000000000000000000000000000000000000000000000000000000000000000000000000000000000000000000000000000000000000000000000000000000000000000000000000000000000000000000000000000000000000000000000000000000000000000000000000000000000000000",
      "type": "0x2",
      "effectiveGasPrice": "0xb8f6ab79"
    }
  ],
  "libraries": [],
  "pending": [],
  "path": "/Users/aseem/projects/paymaster-uni/broadcast/PaymasterUniGovernance.s.sol/11155111/run-latest.json",
  "returns": {},
  "timestamp": 1701119103,
  "chain": 11155111,
  "multi": false,
  "commit": "4e7454b"
}