{
  "transactions": [
    {
      "hash": "0x98bae9c2eb191ee2440b9fbcdefdbaf044ed670952437e4ccb1a9bbe36c7a9a0",
      "transactionType": "CALL",
      "contractName": "PaymasterUniGovernance",
      "contractAddress": "0x41647D660322f6e085962177a5218345F69a6084",
      "function": "updateMaxCostAllowed(uint256)",
      "arguments": [
        "1000000000000000"
      ],
      "rpc": "https://sepolia.infura.io/v3/ae2733bc9a044569a7a8c315f7b58218",
      "transaction": {
        "type": "0x02",
        "from": "0xdd1d28e5bedbd000a0539a3bf0ed558f4b721a84",
        "to": "0x41647d660322f6e085962177a5218345f69a6084",
        "gas": "0xa3f2",
        "value": "0x0",
        "data": "0x03b7756b00000000000000000000000000000000000000000000000000038d7ea4c68000",
        "nonce": "0x1d",
        "accessList": []
      },
      "additionalContracts": []
    }
  ],
  "receipts": [],
  "libraries": [],
  "pending": [
    "0x98bae9c2eb191ee2440b9fbcdefdbaf044ed670952437e4ccb1a9bbe36c7a9a0"
  ],
  "path": "/Users/aseem/projects/paymaster-uni/broadcast/PaymasterUniGovernance.s.sol/11155111/run-latest.json",
  "returns": {},
  "timestamp": 1701116765,
  "chain": 11155111,
  "multi": false,
  "commit": "4e7454b"
}